:020000040000FA
:100000000C948A000C94B2000C94B2000C94B200D0
:100010000C94B2000C94B2000C94B2000C94B20098
:100020000C94B2000C94B2000C94B2000C94B20088
:100030000C94B2000C94B2000C94B2000C94B20078
:100040000C94E8030C94B2000C94B6030C94900347
:100050000C94B2000C94B2000C94B2000C94B20058
:100060000C94B2000C94B20008000000BE92244927
:10007000123EABAAAA2ABECDCCCC4C3E00000080DA
:10008000BEABAAAAAA3E00000000BF000000803F4D
:100090000000000000084178D3BB4387D1133D190D
:1000A0000E3CC3BD4282AD2B3E68EC8276BED98F3A
:1000B000E1A93E4C80EFFFBE01C4FF7F3F0000007E
:1000C0000000000000080002010000030407000017
:1000D00000000000000000000000250028002B00A8
:1000E00000000000240027002A0004040404040483
:1000F00004040202020202020303030303030102D7
:1001000004081020408001020408102001020408A5
:100110001020BE0511241FBECFEFD8E0DEBFCDBF3B
:1001200011E0A0E0B1E0E6E1F2E102C005900D923D
:10013000A433B107D9F721E0A4E3B1E001C01D92D7
:10014000AA3DB207E1F710E0CAE8D0E004C0219769
:10015000FE010E940309C938D107C9F70E94320481
:100160000C9409090C94000090E0FC01E250FF4F50
:10017000249186519F4FFC018491882399F090E04F
:10018000880F991FFC01E052FF4FA591B491FC012B
:10019000EA52FF4F859194918FB7F894EC91E22B3E
:1001A000EC938FBF0895AF92BF92CF92DF92EF9200
:1001B000FF920F931F93CF93DF936C017B018B0111
:1001C000040F151FEB015E01AE18BF08C017D10761
:1001D00059F06991D601ED91FC910190F081E02DEB
:1001E000C6010995892B79F7C501DF91CF911F9140
:1001F0000F91FF90EF90DF90CF90BF90AF90089558
:10020000FC01538D448D252F30E0842F90E0821B1C
:10021000930B541710F0CF96089501970895FC01A1
:10022000918D828D981761F0A28DAE0FBF2FB11DF9
:100230005D968C91928D9F5F9F73928F90E0089551
:100240008FEF9FEF0895FC01918D828D981731F00B
:10025000828DE80FF11D858D90E008958FEF9FEF5F
:100260000895FC01918D228D892F90E0805C9F4F35
:10027000821B91098F73992708958DE391E00E9465
:10028000310121E0892B09F420E0822F089580E0DC
:1002900090E0892B29F00E943D0181110C9400000F
:1002A0000895FC01A48DA80FB92FB11DA35ABF4F0B
:1002B0002C91848D90E001968F739927848FA68965
:1002C000B7892C93A089B1898C91837080648C93B9
:1002D000938D848D981306C00288F389E02D808168
:1002E0008F7D80830895EF92FF920F931F93CF939A
:1002F000DF93EC0181E0888F9B8D8C8D98131AC061
:10030000E889F989808185FF15C09FB7F894EE8947
:10031000FF896083E889F9898081837080648083A4
:100320009FBF81E090E0DF91CF911F910F91FF90EF
:10033000EF900895F62E0B8D10E00F5F1F4F0F7397
:100340001127E02E8C8D8E110CC00FB607FCFACF52
:10035000E889F989808185FFF5CFCE010E9451019E
:10036000F1CFEB8DEC0FFD2FF11DE35AFF4FF08223
:100370009FB7F8940B8FEA89FB8980818062CFCF89
:10038000CF93DF93EC01888D8823B9F0AA89BB89CC
:10039000E889F9898C9185FD03C0808186FD0DC0B7
:1003A0000FB607FCF7CF8C9185FFF2CF808185FFD8
:1003B000EDCFCE010E945101E9CFDF91CF91089599
:1003C00090E0FC01EE53FF4F2491FC01E250FF4FFF
:1003D0003491FC01E651FF4FE491EE23C9F0222352
:1003E00039F0233001F1A8F4213019F1223029F13C
:1003F000F0E0EE0FFF1FEA52FF4FA591B4918FB7C7
:10040000F894EC91611126C030953E233C938FBF48
:1004100008952730A9F02830C9F0243049F7809199
:1004200080008F7D03C0809180008F778093800053
:10043000DFCF84B58F7784BDDBCF84B58F7DFBCFD5
:100440008091B0008F778093B000D2CF8091B000C0
:100450008F7DF9CF3E2BDACF8E50806480937C0065
:1004600080917A00806480937A0080917A0086FD82
:10047000FCCF809178009091790008953FB7F8946F
:100480008091390190913A01A0913B01B0913C01DA
:1004900026B5A89B05C02F3F19F00196A11DB11DDF
:1004A0003FBFBA2FA92F982F8827BC01CD01620F1B
:1004B000711D811D911D42E0660F771F881F991FD6
:1004C0004A95D1F70895FC0101900020E9F7319792
:1004D000AF01481B590BBC018DE391E00C94D30094
:1004E0008F929F92AF92BF920F931F93CF93DF9300
:1004F000CDB7DEB7A1970FB6F894DEBF0FBECDBF64
:1005000019A2423008F44AE08E010F5D1F4F842E7D
:10051000912CB12CA12CA50194010E940A06E62F72
:10052000B901CA01EA30F4F4E05DD801EE938D011F
:10053000232B242B252B79F790E080E0109719F0DE
:10054000CD010E946302A1960FB6F894DEBF0FBEE4
:10055000CDBFDF91CF911F910F91BF90AF909F9032
:100560008F900895E95CE1CF4F925F926F927F92F6
:100570008F929F92AF92BF92CF92DF92EF92FF92B3
:100580000F931F93CF936B017C01742EAC019B01E1
:100590000E94C208882399F082E191E0CF911F91D7
:1005A0000F91FF90EF90DF90CF90BF90AF909F9012
:1005B0008F907F906F905F904F900C9463024601F4
:1005C0005701E894B7F82FEF3FEF4FE75FE7C5011A
:1005D000B4010E94C20881110DC02FEF3FEF4FE719
:1005E0005FE7C501B4010E94A80618161CF486E155
:1005F00091E0D4CF2FEF3FEF4FE75FE4C701B601A3
:100600000E94000818161CF48AE191E0C7CF2FEF72
:100610003FEF4FE75FECC701B6010E94A80687FDD8
:10062000F3CF20E030E0A901C701B6010E94A8067F
:1006300010E000E087FF0AC06DE28DE391E00E94C8
:1006400073018C01F7FAF094F7F8F094C0E060E0E1
:1006500070E080E09FE37C1641F020E030E040E273
:1006600051E40E94AD06CF5FF6CFA70196010E942C
:100670003C062B013C010E941F074B015C014AE034
:100680000E9470027C01E00EF11ECC23C1F1C50175
:10069000B4010E944E079B01AC01C301B2010E944C
:1006A0003B064B015C016EE28DE391E00E94730119
:1006B000E80EF91EC15018F120E030E040E251E4AC
:1006C000C501B4010E9455082B013C010E941F077F
:1006D0004B01B12CA12C4AE0C501B4010E9470026B
:1006E000E80EF91EC501B4010E944E079B01AC0142
:1006F000C301B2010E943B064B015C01DBCFC70185
:10070000CF911F910F91FF90EF90DF90CF90BF900E
:10071000AF909F908F907F906F905F904F900895D3
:100720001F920F920FB60F9211242F933F934F9366
:100730005F936F937F938F939F93AF93BF93EF9349
:10074000FF938DE391E00E945101FF91EF91BF91E2
:10075000AF919F918F917F916F915F914F913F9159
:100760002F910F900FBE0F901F9018951F920F9210
:100770000FB60F9211242F938F939F93EF93FF93B4
:10078000E0914D01F0914E018081E0915301F09193
:10079000540182FD1BC09081809156018F5F8F7341
:1007A00020915701821741F0E0915601F0E0E35C9F
:1007B000FE4F958F80935601FF91EF919F918F91FE
:1007C0002F910F900FBE0F901F9018958081F4CF3E
:1007D0001F920F920FB60F9211242F933F938F9376
:1007E0009F93AF93BF938091350190913601A09173
:1007F0003701B09138013091340123E0230F2D37B8
:1008000058F50196A11DB11D209334018093350147
:1008100090933601A0933701B0933801809139014C
:1008200090913A01A0913B01B0913C010196A11D2C
:10083000B11D8093390190933A01A0933B01B0938D
:100840003C01BF91AF919F918F913F912F910F905C
:100850000FBE0F901F90189526E8230F0296A11D3A
:10086000B11DD2CFCF93DF9300D000D0CDB7DEB78C
:10087000789484B5826084BD84B5816084BD85B57B
:10088000826085BD85B5816085BD80916E00816087
:1008900080936E001092810080918100826080932D
:1008A000810080918100816080938100809180002F
:1008B0008160809380008091B10084608093B1005A
:1008C0008091B00081608093B00080917A00846054
:1008D00080937A0080917A00826080937A00809180
:1008E0007A00816080937A0080917A00806880939A
:1008F0007A001092C100E0914D01F0914E0182E02A
:100900008083E0914901F0914A011082E0914B010E
:10091000F0914C018FEC808310925501E0915101D0
:10092000F091520186E08083E0914F01F0915001F7
:10093000808180618083E0914F01F091500180813E
:1009400088608083E0914F01F09150018081806840
:100950008083E0914F01F091500180818F7D8083F1
:100960008DE00E94B4008CE00E94B4008EE00E94F2
:100970002C027C018FE00E942C026C018EE191E040
:100980000E94630220ED37E0D6010E94FC082FEFA1
:1009900033E040E050E00E94EB05CA01B9010E943B
:1009A000500742E00E94B40288E291E00E94630294
:1009B000B701FF0C880B990B0E94500720E030E034
:1009C00040E85AE30E94550820E030E040EA50E455
:1009D0000E9455086B017C0120E030E44CE156E4B4
:1009E0000E9455084B015C01A701960160E070E090
:1009F00080EA90E40E943B069B01AC01C501B40172
:100A00000E94AD062B013C010E940D084B015C01C8
:100A100022EC3BE849EB51E30E945508A501940103
:100A20000E945508A50194010E94550869837A83A4
:100A30008B839C8322EB3FEF46E959E3C501B40168
:100A40000E94550825EB3EEC46E35AE30E943C0623
:100A50009B01AC0169817A818B819C810E943C065B
:100A60009B01AC0160E070E080E89FE30E94AD066E
:100A70004B015C01A7019601C701B6010E94550810
:100A80006B017C0120E030E040E250E4C301B201A0
:100A90000E9455089B01AC01C701B6010E94AD063A
:100AA00020E030E04AE754E40E9455089B01AC0185
:100AB000C501B4010E943B0623E333E948E853E44F
:100AC0000E943B066B017C0120E030E048E252E4EA
:100AD0000E94000861E087FD60E08DE00E94E00177
:100AE00020E030E040EF51E4C701B6010E94A806C3
:100AF00061E018160CF460E08CE00E94E0018BE2EB
:100B000091E00E94630242E0C701B6010E94B40274
:100B100080E391E00E9463020E943E024B015C016F
:100B200084ECC82E89E0D82EE12CF12C0E943E02E4
:100B3000681979098A099B09683E73408105910506
:100B4000A8F321E0C21AD108E108F10888EE880E66
:100B500083E0981EA11CB11CC114D104E104F1046E
:100B600029F780E090E0892B09F400CF0E943D0135
:100B7000882309F4FBCE0E940000F8CEEDE3F1E0FB
:100B80001382128288EE93E0A0E0B0E08483958324
:100B9000A683B78384E091E09183808385EC90E025
:100BA0009587848784EC90E09787868780EC90E037
:100BB000918B808B81EC90E0938B828B82EC90E028
:100BC000958B848B86EC90E0978B868B118E128EA2
:100BD000138E148E0895052E97FB1EF400940E9428
:100BE000020657FD07D00E940A0607FC03D04EF408
:100BF0000C94020650954095309521953F4F4F4FEC
:100C00005F4F089590958095709561957F4F8F4FB8
:100C10009F4F0895A1E21A2EAA1BBB1BFD010DC018
:100C2000AA1FBB1FEE1FFF1FA217B307E407F5079C
:100C300020F0A21BB30BE40BF50B661F771F881F78
:100C4000991F1A9469F760957095809590959B010E
:100C5000AC01BD01CF010895A29FB001B39FC001B7
:100C6000A39F700D811D1124911DB29F700D811DD8
:100C70001124911D08955058BB27AA270E9453069E
:100C80000C94C6070E94B80738F00E94BF0720F0F6
:100C900039F49F3F19F426F40C94B5070EF4E0954F
:100CA000E7FB0C94AF07E92F0E94D70758F3BA1758
:100CB000620773078407950720F079F4A6F50C9472
:100CC000F9070EF4E0950B2EBA2FA02D0B01B901F8
:100CD00090010C01CA01A0011124FF27591B99F0B2
:100CE000593F50F4503E68F11A16F040A22F232FBE
:100CF000342F4427585FF3CF469537952795A7950E
:100D0000F0405395C9F77EF41F16BA0B620B730BB4
:100D1000840BBAF09150A1F0FF0FBB1F661F771F25
:100D2000881FC2F70EC0BA0F621F731F841F48F4DA
:100D3000879577956795B795F7959E3F08F0B0CF63
:100D40009395880F08F09927EE0F9795879508954A
:100D50000E948B0708F481E008950E94C1060C945C
:100D6000C6070E94BF0758F00E94B80740F029F458
:100D70005F3F29F00C94AF0751110C94FA070C94C3
:100D8000B5070E94D70768F39923B1F3552391F370
:100D9000951B550BBB27AA2762177307840738F0EA
:100DA0009F5F5F4F220F331F441FAA1FA9F335D047
:100DB0000E2E3AF0E0E832D091505040E695001CFB
:100DC000CAF72BD0FE2F29D0660F771F881FBB1FB5
:100DD000261737074807AB07B0E809F0BB0B802D93
:100DE000BF01FF2793585F4F3AF09E3F510578F0BF
:100DF0000C94AF070C94FA075F3FE4F3983ED4F3EA
:100E0000869577956795B795F7959F5FC9F7880F92
:100E1000911D9695879597F90895E1E0660F771FE4
:100E2000881FBB1F621773078407BA0720F0621B75
:100E3000730B840BBA0BEE1F88F7E09508950E94A0
:100E4000DF0788F09F5798F0B92F9927B751B0F076
:100E5000E1F0660F771F881F991F1AF0BA95C9F73E
:100E600014C0B13091F00E94F907B1E008950C94DC
:100E7000F907672F782F8827B85F39F0B93FCCF38F
:100E8000869577956795B395D9F73EF490958095BB
:100E9000709561957F4F8F4F9F4F0895E89409C0DB
:100EA00097FB3EF490958095709561957F4F8F4F9D
:100EB0009F4F9923A9F0F92F96E9BB279395F695B3
:100EC000879577956795B795F111F8CFFAF4BB0F31
:100ED00011F460FF1BC06F5F7F4F8F4F9F4F16C095
:100EE000882311F096E911C0772321F09EE8872F1F
:100EF000762F05C0662371F096E8862F70E060E0DB
:100F00002AF09A95660F771F881FDAF7880F969553
:100F1000879597F90895990F0008550FAA0BE0E8F7
:100F2000FEEF16161706E807F907C0F012161306AB
:100F3000E407F50798F0621B730B840B950B39F4EB
:100F40000A2661F0232B242B252B21F408950A2651
:100F500009F4A140A6958FEF811D811D089597F991
:100F60009F6780E870E060E008959FEF80EC08954F
:100F700000240A9416161706180609060895002478
:100F80000A9412161306140605060895092E0394F2
:100F9000000C11F4882352F0BB0F40F4BF2B11F466
:100FA00060FF04C06F5F7F4F8F4F9F4F089557FDC5
:100FB0009058440F551F59F05F3F71F04795880FC7
:100FC00097FB991F61F09F3F79F08795089512165E
:100FD00013061406551FF2CF4695F1DF08C016160A
:100FE00017061806991FF1CF8695710561050894BB
:100FF0000895E894BB2766277727CB0197F90895D2
:101000000E948B0708F48FEF089516F00C94C70820
:101010000C94B50768940C94AF070E94DF07A8F3FF
:101020009923C1F3AEF3DF93CF931F930F93FF92F6
:10103000C92FDD2788232AF02197660F771F881F85
:10104000DAF720E030E040E85FEB9FE3883920F0FA
:10105000803E38F021968F770E943C06E8E6F0E06B
:1010600004C00E943C06E5E9F0E00E94D5088B012F
:10107000BE01EC01FB2E6F5771097595771F880B28
:10108000990B0E94500728E132E741E35FE30E9499
:101090006808AF2D9801AE01FF900F911F91CF917D
:1010A000DF910E9453060C94C6070E9468080C94B6
:1010B000C6070E94B80738F00E94BF0720F09523AA
:1010C00011F00C94AF070C94B50711240C94FA0797
:1010D0000E94D70770F3959FC1F3950F50E0551FFD
:1010E000629FF001729FBB27F00DB11D639FAA277D
:1010F000F00DB11DAA1F649F6627B00DA11D661FCC
:10110000829F2227B00DA11D621F739FB00DA11DEC
:10111000621F839FA00D611D221F749F3327A00DA6
:10112000611D231F849F600D211D822F762F6A2F42
:1011300011249F5750409AF0F1F088234AF0EE0FA7
:10114000FF1FBB1F661F771F881F91505040A9F7D4
:101150009E3F510580F00C94AF070C94FA075F3F57
:10116000E4F3983ED4F3869577956795B795F79510
:10117000E7959F5FC1F7FE2B880F911D9695879588
:1011800097F908950E948B07880B990B08959F3F4C
:1011900031F0915020F4879577956795B795880F32
:1011A000911D9695879597F90895DF93CF931F9397
:1011B0000F93FF92EF92DF927B018C01689406C03F
:1011C000DA2EEF010E946808FE01E894A5912591AE
:1011D000359145915591A6F3EF010E945306FE010A
:1011E0009701A801DA9469F7DF90EF90FF900F91D3
:1011F0001F91CF91DF9108950E942C06B7FF0895AB
:10120000821B930B0895EE0FFF1F0590F491E02DC4
:101210000994F894FFCF000000007301D30000018F
:10122000C00131010F0123016E616E00696E66001D
:101230006F76660048756D656461643A20000D0A3A
:0A1240000054203D2000430A000086
:107E0000112484B714BE81FFF0D085E080938100F7
:107E100082E08093C00088E18093C10086E0809377
:107E2000C20080E18093C4008EE0C9D0259A86E02C
:107E300020E33CEF91E0309385002093840096BBD3
:107E4000B09BFECF1D9AA8958150A9F7CC24DD24C4
:107E500088248394B5E0AB2EA1E19A2EF3E0BF2EE7
:107E6000A2D0813461F49FD0082FAFD0023811F036
:107E7000013811F484E001C083E08DD089C08234E0
:107E800011F484E103C0853419F485E0A6D080C0E4
:107E9000853579F488D0E82EFF2485D0082F10E0AE
:107EA000102F00270E291F29000F111F8ED06801E7
:107EB0006FC0863521F484E090D080E0DECF843638
:107EC00009F040C070D06FD0082F6DD080E0C81688
:107ED00080E7D80618F4F601B7BEE895C0E0D1E017
:107EE00062D089930C17E1F7F0E0CF16F0E7DF06D8
:107EF00018F0F601B7BEE89568D007B600FCFDCFD4
:107F0000A601A0E0B1E02C9130E011968C91119780
:107F100090E0982F8827822B932B1296FA010C0160
:107F200087BEE89511244E5F5F4FF1E0A038BF0790
:107F300051F7F601A7BEE89507B600FCFDCF97BE46
:107F4000E89526C08437B1F42ED02DD0F82E2BD052
:107F50003CD0F601EF2C8F010F5F1F4F84911BD097
:107F6000EA94F801C1F70894C11CD11CFA94CF0C13
:107F7000D11C0EC0853739F428D08EE10CD085E9AC
:107F80000AD08FE07ACF813511F488E018D01DD067
:107F900080E101D065CF982F8091C00085FFFCCF94
:107FA0009093C60008958091C00087FFFCCF809118
:107FB000C00084FD01C0A8958091C6000895E0E648
:107FC000F0E098E1908380830895EDDF803219F02E
:107FD00088E0F5DFFFCF84E1DECF1F93182FE3DFCA
:107FE0001150E9F7F2DF1F91089580E0E8DFEE27F6
:047FF000FF270994CA
:027FFE00040479
:00000001FF
