:100000000C948A000C94B2000C94B2000C94B200D0
:100010000C94B2000C94B2000C94B2000C94B20098
:100020000C94B2000C94B2000C94B2000C94B20088
:100030000C94B2000C94B2000C94B2000C94B20078
:100040000C94E8030C94B2000C94B6030C94900347
:100050000C94B2000C94B2000C94B2000C94B20058
:100060000C94B2000C94B20008000000BE92244927
:10007000123EABAAAA2ABECDCCCC4C3E00000080DA
:10008000BEABAAAAAA3E00000000BF000000803F4D
:100090000000000000084178D3BB4387D1133D190D
:1000A0000E3CC3BD4282AD2B3E68EC8276BED98F3A
:1000B000E1A93E4C80EFFFBE01C4FF7F3F0000007E
:1000C0000000000000080002010000030407000017
:1000D00000000000000000000000250028002B00A8
:1000E00000000000240027002A0004040404040483
:1000F00004040202020202020303030303030102D7
:1001000004081020408001020408102001020408A5
:100110001020040611241FBECFEFD8E0DEBFCDBFF4
:1001200011E0A0E0B1E0E2EAF2E102C005900D9238
:10013000A634B107D9F721E0A6E4B1E001C01D92D1
:10014000AC3EB207E1F710E0CAE8D0E004C0219766
:10015000FE010E944909C938D107C9F70E9432043B
:100160000C944F090C94000090E0FC01E250FF4F0A
:10017000249186519F4FFC018491882399F090E04F
:10018000880F991FFC01E052FF4FA591B491FC012B
:10019000EA52FF4F859194918FB7F894EC91E22B3E
:1001A000EC938FBF0895AF92BF92CF92DF92EF9200
:1001B000FF920F931F93CF93DF936C017B018B0111
:1001C000040F151FEB015E01AE18BF08C017D10761
:1001D00059F06991D601ED91FC910190F081E02DEB
:1001E000C6010995892B79F7C501DF91CF911F9140
:1001F0000F91FF90EF90DF90CF90BF90AF90089558
:10020000FC01538D448D252F30E0842F90E0821B1C
:10021000930B541710F0CF96089501970895FC01A1
:10022000918D828D981761F0A28DAE0FBF2FB11DF9
:100230005D968C91928D9F5F9F73928F90E0089551
:100240008FEF9FEF0895FC01918D828D981731F00B
:10025000828DE80FF11D858D90E008958FEF9FEF5F
:100260000895FC01918D228D892F90E0805C9F4F35
:10027000821B91098F73992708958FE491E00E9462
:10028000310121E0892B09F420E0822F089580E0DC
:1002900090E0892B29F00E943D0181110C9400000F
:1002A0000895FC01A48DA80FB92FB11DA35ABF4F0B
:1002B0002C91848D90E001968F739927848FA68965
:1002C000B7892C93A089B1898C91837080648C93B9
:1002D000938D848D981306C00288F389E02D808168
:1002E0008F7D80830895EF92FF920F931F93CF939A
:1002F000DF93EC0181E0888F9B8D8C8D98131AC061
:10030000E889F989808185FF15C09FB7F894EE8947
:10031000FF896083E889F9898081837080648083A4
:100320009FBF81E090E0DF91CF911F910F91FF90EF
:10033000EF900895F62E0B8D10E00F5F1F4F0F7397
:100340001127E02E8C8D8E110CC00FB607FCFACF52
:10035000E889F989808185FFF5CFCE010E9451019E
:10036000F1CFEB8DEC0FFD2FF11DE35AFF4FF08223
:100370009FB7F8940B8FEA89FB8980818062CFCF89
:10038000CF93DF93EC01888D8823B9F0AA89BB89CC
:10039000E889F9898C9185FD03C0808186FD0DC0B7
:1003A0000FB607FCF7CF8C9185FFF2CF808185FFD8
:1003B000EDCFCE010E945101E9CFDF91CF91089599
:1003C00090E0FC01EE53FF4F2491FC01E250FF4FFF
:1003D0003491FC01E651FF4FE491EE23C9F0222352
:1003E00039F0233001F1A8F4213019F1223029F13C
:1003F000F0E0EE0FFF1FEA52FF4FA591B4918FB7C7
:10040000F894EC91611126C030953E233C938FBF48
:1004100008952730A9F02830C9F0243049F7809199
:1004200080008F7D03C0809180008F778093800053
:10043000DFCF84B58F7784BDDBCF84B58F7DFBCFD5
:100440008091B0008F778093B000D2CF8091B000C0
:100450008F7DF9CF3E2BDACF8E50806480937C0065
:1004600080917A00806480937A0080917A0086FD82
:10047000FCCF809178009091790008953FB7F8946F
:1004800080914B0190914C01A0914D01B0914E0192
:1004900026B5A89B05C02F3F19F00196A11DB11DDF
:1004A0003FBFBA2FA92F982F8827BC01CD01620F1B
:1004B000711D811D911D42E0660F771F881F991FD6
:1004C0004A95D1F70895FC0101900020E9F7319792
:1004D000AF01481B590BBC018FE491E00C94D30091
:1004E0008F929F92AF92BF920F931F93CF93DF9300
:1004F000CDB7DEB7A1970FB6F894DEBF0FBECDBF64
:1005000019A2423008F44AE08E010F5D1F4F842E7D
:10051000912CB12CA12CA50194010E945006E62F2C
:10052000B901CA01EA30F4F4E05DD801EE938D011F
:10053000232B242B252B79F790E080E0109719F0DE
:10054000CD010E946302A1960FB6F894DEBF0FBEE4
:10055000CDBFDF91CF911F910F91BF90AF909F9032
:100560008F900895E95CE1CF4F925F926F927F92F6
:100570008F929F92AF92BF92CF92DF92EF92FF92B3
:100580000F931F93CF936B017C01742EAC019B01E1
:100590000E940809882399F082E191E0CF911F9190
:1005A0000F91FF90EF90DF90CF90BF90AF909F9012
:1005B0008F907F906F905F904F900C9463024601F4
:1005C0005701E894B7F82FEF3FEF4FE75FE7C5011A
:1005D000B4010E94080981110DC02FEF3FEF4FE7D2
:1005E0005FE7C501B4010E94EE0618161CF486E10F
:1005F00091E0D4CF2FEF3FEF4FE75FE4C701B601A3
:100600000E94460818161CF48AE191E0C7CF2FEF2C
:100610003FEF4FE75FECC701B6010E94EE0687FD92
:10062000F3CF20E030E0A901C701B6010E94EE0639
:1006300010E000E087FF0AC06DE28FE491E00E94C5
:1006400073018C01F7FAF094F7F8F094C0E060E0E1
:1006500070E080E09FE37C1641F020E030E040E273
:1006600051E40E94F306CF5FF6CFA70196010E94E6
:1006700082062B013C010E9465074B015C014AE0A8
:100680000E9470027C01E00EF11ECC23C1F1C50175
:10069000B4010E9494079B01AC01C301B2010E9406
:1006A00081064B015C016EE28FE491E00E947301D0
:1006B000E80EF91EC15018F120E030E040E251E4AC
:1006C000C501B4010E949B082B013C010E946507F3
:1006D0004B01B12CA12C4AE0C501B4010E9470026B
:1006E000E80EF91EC501B4010E9494079B01AC01FC
:1006F000C301B2010E9481064B015C01DBCFC7013F
:10070000CF911F910F91FF90EF90DF90CF90BF900E
:10071000AF909F908F907F906F905F904F900895D3
:100720001F920F920FB60F9211242F933F934F9366
:100730005F936F937F938F939F93AF93BF93EF9349
:10074000FF938FE491E00E945101FF91EF91BF91DF
:10075000AF919F918F917F916F915F914F913F9159
:100760002F910F900FBE0F901F9018951F920F9210
:100770000FB60F9211242F938F939F93EF93FF93B4
:10078000E0915F01F09160018081E0916501F0915D
:10079000660182FD1BC09081809168018F5F8F731D
:1007A00020916901821741F0E0916801F0E0E15B7E
:1007B000FE4F958F80936801FF91EF919F918F91EC
:1007C0002F910F900FBE0F901F9018958081F4CF3E
:1007D0001F920F920FB60F9211242F933F938F9376
:1007E0009F93AF93BF938091470190914801A0914F
:1007F0004901B0914A013091460123E0230F2D3782
:1008000058F50196A11DB11D209346018093470123
:1008100090934801A0934901B0934A0180914B0104
:1008200090914C01A0914D01B0914E010196A11DF6
:10083000B11D80934B0190934C01A0934D01B09357
:100840004E01BF91AF919F918F913F912F910F904A
:100850000FBE0F901F90189526E8230F0296A11D3A
:10086000B11DD2CFCF93DF9300D000D0CDB7DEB78C
:10087000789484B5826084BD84B5816084BD85B57B
:10088000826085BD85B5816085BD80916E00816087
:1008900080936E001092810080918100826080932D
:1008A000810080918100816080938100809180002F
:1008B0008160809380008091B10084608093B1005A
:1008C0008091B00081608093B00080917A00846054
:1008D00080937A0080917A00826080937A00809180
:1008E0007A00816080937A0080917A00806880939A
:1008F0007A001092C100E0915F01F091600182E006
:100900008083E0915B01F0915C011082E0915D01D8
:10091000F0915E018FEC808310926701E09163019A
:10092000F091640186E08083E0916101F0916201C1
:10093000808180618083E0916101F091620180811A
:1009400088608083E0916101F0916201808180681C
:100950008083E0916101F091620180818F7D8083CD
:100960008DE00E94B4008CE00E94B4008EE00E94F2
:100970002C02BC01990F880B990B0E9496074B0122
:100980005C018FE00E942C0220ED37E0DC010E9428
:1009900042092FEF33E040E050E00E943106CA01E7
:1009A000B9010E9496072B013C0180E10E942C02B4
:1009B00028E730E0DC010E9442092FEF33E040E0FD
:1009C00050E00E943106CA01B9010E9496076B01EE
:1009D0007C0120E030E040EF51E40E94EE0687FD0C
:1009E0000CC120E030E048E252E4C701B6010E94A9
:1009F0004608181634F4C12CD12C28E2E22E22E449
:100A0000F22E8EE191E00E94630242E0C701B6013E
:100A10000E94B4028CE391E00E94630281E391E0C2
:100A20000E94630242E0C301B2010E94B4028BE360
:100A300091E00E94630220E030E040E85AE3C50103
:100A4000B4010E949B0820E030E040EA50E40E949C
:100A50009B086B017C0120E030E44CE156E40E94ED
:100A60009B084B015C01A701960160E070E080EA01
:100A700090E40E9481069B01AC01C501B4010E9473
:100A8000F3062B013C010E9453084B015C0122EC50
:100A90003BE849EB51E30E949B08A50194010E94A9
:100AA0009B08A50194010E949B0869837A838B832C
:100AB0009C8322EB3FEF46E959E3C501B4010E9454
:100AC0009B0825EB3EEC46E35AE30E9482069B011D
:100AD000AC0169817A818B819C810E9482069B0195
:100AE000AC0160E070E080E89FE30E94F3064B01F8
:100AF0005C01A7019601C701B6010E949B086B012A
:100B00007C0120E030E040E250E4C301B2010E94E9
:100B10009B089B01AC01C701B6010E94F30620E0CF
:100B200030E04AE754E40E949B089B01AC01C501F8
:100B3000B4010E94810623E333E948E853E40E94AC
:100B400081066B017C0120E030E048E252E40E9423
:100B5000460861E087FD60E08DE00E94E00120E052
:100B600030E040EF51E4C701B6010E94EE0661E0BB
:100B700018160CF460E08CE00E94E0018EE391E036
:100B80000E94630242E0C701B6010E94B40283E4FE
:100B900091E00E9463020E943E024B015C0184ECE2
:100BA000C82E89E0D82EE12CF12C0E943E02681953
:100BB00079098A099B09683E734081059105A8F36C
:100BC00021E0C21AD108E108F10888EE880E83E01E
:100BD000981EA11CB11CC114D104E104F10429F731
:100BE00080E090E0892B09F4C1CE0E943D0188236A
:100BF00009F4BCCE0E940000B9CEC12CD12C90EFDC
:100C0000E92E91E4F92EFDCEEFE4F1E01382128299
:100C100088EE93E0A0E0B0E084839583A683B78359
:100C200084E091E09183808385EC90E095878487D0
:100C300084EC90E09787868780EC90E0918B808BA6
:100C400081EC90E0938B828B82EC90E0958B848B8F
:100C500086EC90E0978B868B118E128E138E148EFD
:100C60000895052E97FB1EF400940E94480657FD38
:100C700007D00E94500607FC03D04EF40C9448069F
:100C800050954095309521953F4F4F4F5F4F0895B8
:100C900090958095709561957F4F8F4F9F4F0895E8
:100CA000A1E21A2EAA1BBB1BFD010DC0AA1FBB1F70
:100CB000EE1FFF1FA217B307E407F50720F0A21BE2
:100CC000B30BE40BF50B661F771F881F991F1A944F
:100CD00069F760957095809590959B01AC01BD0179
:100CE000CF010895A29FB001B39FC001A39F700DD3
:100CF000811D1124911DB29F700D811D1124911D24
:100D000008955058BB27AA270E9499060C940C08F6
:100D10000E94FE0738F00E94050820F039F49F3F3A
:100D200019F426F40C94FB070EF4E095E7FB0C9401
:100D3000F507E92F0E941D0858F3BA1762077307D9
:100D40008407950720F079F4A6F50C943F080EF47B
:100D5000E0950B2EBA2FA02D0B01B90190010C01CB
:100D6000CA01A0011124FF27591B99F0593F50F4E3
:100D7000503E68F11A16F040A22F232F342F44273B
:100D8000585FF3CF469537952795A795F040539533
:100D9000C9F77EF41F16BA0B620B730B840BBAF003
:100DA0009150A1F0FF0FBB1F661F771F881FC2F76E
:100DB0000EC0BA0F621F731F841F48F48795779582
:100DC0006795B795F7959E3F08F0B0CF9395880F3C
:100DD00008F09927EE0F9795879508950E94D107FF
:100DE00008F481E008950E9407070C940C080E9403
:100DF000050858F00E94FE0740F029F45F3F29F0F3
:100E00000C94F50751110C9440080C94FB070E94B8
:100E10001D0868F39923B1F3552391F3951B550BE6
:100E2000BB27AA2762177307840738F09F5F5F4FBD
:100E3000220F331F441FAA1FA9F335D00E2E3AF0FC
:100E4000E0E832D091505040E695001CCAF72BD014
:100E5000FE2F29D0660F771F881FBB1F2617370765
:100E60004807AB07B0E809F0BB0B802DBF01FF2797
:100E700093585F4F3AF09E3F510578F00C94F50778
:100E80000C9440085F3FE4F3983ED4F38695779541
:100E90006795B795F7959F5FC9F7880F911D969550
:100EA000879597F90895E1E0660F771F881FBB1FAC
:100EB000621773078407BA0720F0621B730B840B59
:100EC000BA0BEE1F88F7E09508950E94250888F078
:100ED0009F5798F0B92F9927B751B0F0E1F0660FFE
:100EE000771F881F991F1AF0BA95C9F714C0B1303F
:100EF00091F00E943F08B1E008950C943F08672FDD
:100F0000782F8827B85F39F0B93FCCF3869577956D
:100F10006795B395D9F73EF4909580957095619556
:100F20007F4F8F4F9F4F0895E89409C097FB3EF481
:100F300090958095709561957F4F8F4F9F4F992326
:100F4000A9F0F92F96E9BB279395F69587957795A4
:100F50006795B795F111F8CFFAF4BB0F11F460FF64
:100F60001BC06F5F7F4F8F4F9F4F16C0882311F0BC
:100F700096E911C0772321F09EE8872F762F05C0D0
:100F8000662371F096E8862F70E060E02AF09A956B
:100F9000660F771F881FDAF7880F9695879597F960
:100FA0000895990F0008550FAA0BE0E8FEEF1616FA
:100FB0001706E807F907C0F012161306E407F5074D
:100FC00098F0621B730B840B950B39F40A2661F0C1
:100FD000232B242B252B21F408950A2609F4A14064
:100FE000A6958FEF811D811D089597F99F6780E871
:100FF00070E060E008959FEF80EC089500240A946B
:101000001616170618060906089500240A941216E3
:101010001306140605060895092E0394000C11F416
:10102000882352F0BB0F40F4BF2B11F460FF04C0C3
:101030006F5F7F4F8F4F9F4F089557FD9058440F1C
:10104000551F59F05F3F71F04795880F97FB991F27
:1010500061F09F3F79F087950895121613061406E4
:10106000551FF2CF4695F1DF08C016161706180671
:10107000991FF1CF86957105610508940895E8944C
:10108000BB2766277727CB0197F908950E94D107E0
:1010900008F48FEF089516F00C940D090C94FB07DB
:1010A00068940C94F5070E942508A8F39923C1F3CE
:1010B000AEF3DF93CF931F930F93FF92C92FDD27DA
:1010C00088232AF02197660F771F881FDAF720E020
:1010D00030E040E85FEB9FE3883920F0803E38F055
:1010E00021968F770E948206E8E6F0E004C00E9415
:1010F0008206E5E9F0E00E941B098B01BE01EC01CC
:10110000FB2E6F5771097595771F880B990B0E94FD
:10111000960728E132E741E35FE30E94AE08AF2D76
:101120009801AE01FF900F911F91CF91DF910E9426
:1011300099060C940C080E94AE080C940C080E94AE
:10114000FE0738F00E94050820F0952311F00C945A
:10115000F5070C94FB0711240C9440080E941D080D
:1011600070F3959FC1F3950F50E0551F629FF001FA
:10117000729FBB27F00DB11D639FAA27F00DB11D13
:10118000AA1F649F6627B00DA11D661F829F22279C
:10119000B00DA11D621F739FB00DA11D621F839F23
:1011A000A00D611D221F749F3327A00D611D231FF9
:1011B000849F600D211D822F762F6A2F11249F5747
:1011C00050409AF0F1F088234AF0EE0FFF1FBB1F4A
:1011D000661F771F881F91505040A9F79E3F510509
:1011E00080F00C94F5070C9440085F3FE4F3983EC0
:1011F000D4F3869577956795B795F795E7959F5FB3
:10120000C1F7FE2B880F911D9695879597F9089544
:101210000E94D107880B990B08959F3F31F09150A0
:1012200020F4879577956795B795880F911D9695CA
:10123000879597F90895DF93CF931F930F93FF92AC
:10124000EF92DF927B018C01689406C0DA2EEF01E9
:101250000E94AE08FE01E894A59125913591459133
:101260005591A6F3EF010E949906FE019701A8018E
:10127000DA9469F7DF90EF90FF900F911F91CF9173
:10128000DF9108950E947206B7FF0895821B930BA9
:101290000895EE0FFF1F0590F491E02D0994F89446
:0212A000FFCF7E
:1012A200000000007301D3000001C00131010F01F1
:1012B20023016E616E00696E66006F76660054658A
:1012C2006D7065726174757261204D6574613A204A
:1012D2000048756D656461643A20000D0A0054206F
:0612E2003D2000430A005C
:00000001FF
